:03000000020224D5
:0C022400787FE4F6D8FD75811502017F9B
:10017F001200BD8E088F091200BDEFB509F9EEB55B
:10018F0008F5E4F50AF50BC3E50B9464E50A940052
:10019F0050DE7D011200031202307D0212000312A5
:1001AF0002307D031200031202307D04120003128D
:0C01BF000230050BE50B70CF050A80CB69
:1000BD00750C01E4F50DF50EF50FF510E50CD39467
:1000CD00045053AF10AE0F1201CB120128EF60ECAC
:1000DD001FE50C25E025E0FEC374109EFEEFA8067B
:1000ED007E00088005C333CE33CED8F92510F51028
:1000FD00EE350FF50FE4F50DF50EAF10AE0F120145
:10010D00CB050EE50E7002050DC3940AE50D9400A6
:0A011D0040E8050C80A6AE0FAF10FD
:0101270022B5
:0401CB008E118F12F0
:1001CF00E4F515E515C39410503CE512AE11A815D2
:1001DF00088005C333CE33CED8F9F5148E13E5134B
:1001EF00C4540FF514751300E5151313543F240170
:1001FF00FDE433FCAF14AE13120009120230740485
:06020F002515F51580BD68
:0102150022C6
:1001280075900FE590640FFF24FE601024FE6010A8
:1001380024FC60102407700EE4FF800A7F0180060B
:100148007F0280027F037590F0E59064F0C4540F3D
:10015800FE24FE601024FE601024FC60102407704A
:100168000E7E01800A7E0280067E0380027E04EFF6
:0601780025E025E02EFF4A
:01017E00225E
:060003007C007F157E0069
:1000090075A001E5A0A805088002C333D8FCF5A0B6
:10001900EE60030200B1EFB4160040030200B19094
:10002900002FF82828730200710200750200790276
:10003900007D02008102008502008902008D020014
:100049009102009502009902009D0200A10200A5FB
:100059000200A90200AD0200B10200B10200B10222
:1000690000B10200B50200B975803F2275800622F1
:1000790075805B2275804F227580662275806D229E
:1000890075807D227580072275807F2275806F2299
:100099007580772275807C227580392275805E2271
:1000A900758079227580712275807622E4F5802227
:0400B9007580082224
:0B0230000000007F0B7EBEDEFEDFFC46
:01023B0022A0
:0D021600007F087E017DF3DDFEDEFCDFFAD7
:0102230022B8
:00000001FF
