:030000000200E11A
:0C00E100787FE4F6D8FD7581090200A0CC
:1000A000C2A5C2A1C2A2C2A3C2A47D0112000312B2
:1000B00000ED7D027C00E4FFFE1200091200ED7DE0
:1000C000031200031200ED7D047F041200051200EC
:0300D000ED80D7E9
:060003007F027C007E007C
:1000090075A001E5A0A805088002C333D8FCF5A0B6
:10001900EE600302009CEFB41000507790002CF8BA
:1000290028287302005C0200600200640200680272
:10003900006C02007002007402007802007C020069
:100049008002008402008802008C02009002009461
:1000590002009875803F227580062275805B2275A3
:10006900804F227580662275806D2275807D22758C
:1000790080072275807F2275806F227580772275AF
:10008900807C227580392275805E2275807922757F
:0700990080712275807622C0
:0B00ED000000007F0B7EBEDEFEDFFC8B
:0100F80022E5
:0D00D300007F087E017DF3DDFEDEFCDFFA1C
:0100E00022FD
:00000001FF
